:100000000C947A000C94A2000C94A2000C94A20010
:100010000C94A2000C94A2000C94A2000C94EB0C83
:100020000C94A2000C94A2000C94A2000C94A200C8
:100030000C94A2000C94A2000C94A2000C94A200B8
:100040000C94470D0C94A2000C94A2000C94A200F6
:100050000C94A2000C94A2000C94A2000C94A20098
:100060000C94910D0C94A200084AD73B3BCE016E34
:1000700084BCBFFDC12F3D6C74319ABD56833DDAFF
:100080003D00C77F11BED9E4BB4C3E916BAAAABE0E
:10009000000000803F0000000000240027002A002C
:1000A00000000000250028002B00020000000023B3
:1000B00000260029000404040404040404020202CB
:1000C0000202020303030303030102040810204099
:1000D0008001020408102001020408102000000022
:1000E00008000201000003040700000000000000F7
:1000F0000000F50E11241FBECFEFD8E0DEBFCDBF4C
:1001000023E0A4EBB1E001C01D92A130B207E1F7FA
:1001100011E0A0E0B1E0EEE0F0E302C005900D9246
:10012000A43BB107D9F710E0CAE7D0E004C021979B
:10013000FE010E940D16C937D107C9F70E94470F6B
:100140000C9405180C94000008950895AF92BF9286
:10015000CF92DF92EF92FF920F931F93CF93DF9393
:100160006C017B018B01040F151FEB015E01AE18C2
:10017000BF08C017D10759F06991D601ED91FC91E4
:100180000190F081E02DC6010995892B79F7C50111
:10019000DF91CF911F910F91FF90EF90DF90CF9063
:1001A000BF90AF900895833081F028F4813099F0AA
:1001B0008230A9F008958730A9F08830C9F08430E2
:1001C000B1F4809180008F7D03C0809180008F7793
:1001D00080938000089584B58F7784BD089584B599
:1001E0008F7DFBCF8091B0008F778093B000089512
:1001F0008091B0008F7DF9CF1F93CF93DF93282F8D
:1002000030E0F901E352FF4F8491F901E753FF4FCA
:10021000D491F901EB54FF4FC491CC23A9F0162FD0
:1002200081110E94D300EC2FF0E0EE0FFF1FE0568B
:10023000FF4FA591B4918FB7F894EC91111108C0BC
:10024000D095DE23DC938FBFDF91CF911F9108956E
:10025000DE2BF8CF9091000189130BC0EAEAF0E0A1
:10026000E4919FEF90930001E13049F028F0E230F3
:1002700061F060E00C94FC0010926E00FACF909157
:100280006F009D7F90936F00F4CF909170009D7FE1
:100290009093700091E09093B0009091B100987F9E
:1002A00094609093B1001092B300E3CFCF93DF93AB
:1002B00090E0FC01E753FF4F24918B549F4FFC01CA
:1002C00084918823D1F090E0880F991FFC01EA56B1
:1002D000FF4FA591B491FC01E056FF4FC591D49119
:1002E00061110EC09FB7F8948C91E22FE0958E2398
:1002F0008C932881E223E8839FBFDF91CF910895FB
:100300008FB7F894EC91E22BEC938FBFF6CF3FB709
:10031000F8948091030290910402A0910502B0919B
:10032000060226B5A89B05C02F3F19F00196A11D16
:10033000B11D3FBFBA2FA92F982F8827BC01CD012F
:10034000620F711D811D911D42E0660F771F881F8E
:10035000991F4A95D1F708958F929F92AF92BF92BD
:10036000CF92DF92EF92FF924B015C010E948701D6
:100370006B017C010E9487016C197D098E099F0920
:10038000683E734081059105A8F321E0821A910827
:10039000A108B10888EEC80E83E0D81EE11CF11C4C
:1003A00081149104A104B10429F7FF90EF90DF902C
:1003B000CF90BF90AF909F908F9008950895209117
:1003C000DF01260F3327331F21323105ECF4209152
:1003D0005F02FC0190E080E0243069F082E0089543
:1003E000A091DF012191AC0141545E4FA40FB52FC4
:1003F000B11D2C930196861798F38091DF01680F49
:100400006093DF0180E0089581E0089510925F021B
:1004100081E080935E021092390261E082E10E94E5
:10042000FC0061E083E10E94FC00E9EBF0E08081E8
:100430008E7F808380818D7F808388E48093B80065
:1004400085E48093BC000895CF93DF9391E090936F
:10045000BE018823B9F0C091B800D091BA00809154
:10046000BC008A7B8093BC0060E082E10E94FC00BB
:1004700060E083E10E94FC000E940602D093BA0073
:10048000C093B800DF91CF9108958F929F92AF9261
:10049000BF92CF92DF92EF92FF920F931F93CF9371
:1004A000DF93D0918802D13208F0D7C0182FC091C5
:1004B00087020E9487016B017C0180915F0281119C
:1004C0006BC082E080935F0210935E028FEF809397
:1004D0005D0210925C02D0935B02A7E6B2E0EBE310
:1004E000F2E080E0D81391C010923A0280913A0273
:1004F000CC0FC82BC0933A0280913902813009F0A9
:1005000088C0109239020E9487016B017C018091A2
:100510003A028093BB008091610290916202A091A7
:100520006302B0916402892B8A2B8B2BA1F00E946D
:100530008701009161021091620220916302309163
:1005400064026C197D098E099F0906171707280791
:10055000390708F442C08091BC0083FDD8CF85ECF8
:100560008093BC000E9487016B017C0180915F0237
:10057000823009F450C080915D028F3F09F46FC052
:1005800080915D02803209F46CC080915D028033FD
:1005900009F469C084E026C08091610290916202F2
:1005A000A0916302B0916402892B8A2B8B2B09F4F2
:1005B00084CF0E9487018090610290906202A09097
:1005C0006302B09064026C197D098E099F0986163A
:1005D0009706A806B90608F070CF809160020E94C5
:1005E000240285E010926602109288021092650241
:1005F000DF91CF911F910F91FF90EF90DF90CF90FF
:10060000BF90AF909F908F9008959D9191938F5F31
:1006100069CF85EEA5CF8091610290916202A09191
:100620006302B0916402892B8A2B8B2B09F49ECF35
:100630000E94870100916102109162022091630281
:10064000309164026C197D098E099F0906171707FE
:100650002807390708F08ACFC0CF81E0C3CF80E0F8
:10066000C1CF82E0BFCF83E0BDCF1F93CF93DF9395
:10067000162FC1EAD2E0A981BA819B8121E02093A3
:100680006502909387021092660210928802ED91A3
:10069000FC9111970190F081E02D682FCD01099513
:1006A00089819A81DC01ED91FC910190F081E02D2E
:1006B000612F099581E0DF91CF911F910C94450244
:1006C0000895E091180280911702E81730F4F0E0E5
:1006D000E75EFD4F808190E008958FEF9FEF0895D2
:1006E00090911802809117022FEF3FEF981748F46E
:1006F000E92FF0E0E75EFD4F208130E09F5F9093AF
:100700001802C90108958091170290911802891B5F
:10071000990B0895CF92DF92EF92FF920F931F9360
:10072000CF93DF937C01CB018A01209165022223C4
:1007300089F0EB016B01C40ED51ECC15DD0569F007
:100740006991D701ED91FC910190F081E02DC701F5
:100750000995F3CF642F0E94DF01C801DF91CF918B
:100760001F910F91FF90EF90DF90CF900895CF935E
:10077000DF931F92CDB7DEB76983209165022223F4
:10078000F9F020918802203258F021E030E0FC019D
:100790003383228390E080E00F90DF91CF91089522
:1007A00080916602E82FF0E0E959FD4F998190832E
:1007B0008F5F809366028093880281E090E0ECCFA7
:1007C00061E0CE0101960E94DF01F7CFFC01248198
:1007D00031E03093650220938702109266021092F6
:1007E00088028385682B85E992E00E94B70381E047
:1007F0000C94450290E080E008952F923F924F9232
:100800005F926F927F928F929F92AF92BF92CF92A0
:10081000DF92EF92FF921F93CF93DF936C01D0E0B2
:10082000C0E088248A94982C54014FE1442E4EE471
:10083000542E51EC652E50E0752E65EDE62E60E0ED
:10084000F62E1C0181E0281A3108809100018C30BD
:1008500031F5EAEAF0E0149117FDBEC061E08CE0EA
:100860000E945601112309F489C0123009F09AC080
:100870008091B100887F85608093B1008BE980937F
:10088000B30080920A0290920B02A0920C02B092E6
:100890000D02809170008260809370009DC08F3F38
:1008A00009F09AC08CE080930001EAEAF0E014912C
:1008B0001F3F09F491C0113019F150F0123009F4C2
:1008C0003CC017FD89C061E08CE00E945601CDCF8D
:1008D00014BC15BC84B5826084BD85B5816085BDBE
:1008E000F3018491E82FF0E0EE0FFF1FE056FF4F79
:1008F00085919491F70184918093B50110E0AECF7A
:100900001092800010928100809181008860809315
:10091000810080918100816080938100F301849146
:10092000E82FF0E0EE0FFF1FE056FF4F8591949106
:10093000F70184918093B40191CF1092B00010928E
:10094000B1008091B00082608093B0008091B100CE
:1009500081608093B100F3018491E82FF0E0EE0F05
:10096000FF1FE056FF4F859194919093080280936A
:100970000702F70184918093090270CF85B5887FC3
:10098000846085BD8DE487BD8092BA019092BB01E1
:10099000A092BC01B092BD0180916E0082608093F4
:1009A0006E001AC0113009F040C080918100887F2C
:1009B00081608093810050928900409288008092EB
:1009C000B6019092B701A092B801B092B90180919E
:1009D0006F00826080936F0068EC70E080E090E0D0
:1009E0000E94AC018CE00E942A012C163D0631F0D9
:1009F00064E670E080E090E00E94AC012196CC16A5
:100A0000DD0609F022CFDF91CF911F91FF90EF908B
:100A1000DF90CF90BF90AF909F908F907F906F901E
:100A20005F904F903F902F900895123021F0111158
:100A3000D3CF8FE1A8CF8FE122CFFC01019000201E
:100A4000E9F73197AF01481B590BBC0189E892E0E7
:100A50000C94A6004F925F926F927F928F929F921A
:100A6000AF92BF92CF92DF92EF92FF920F931F93BC
:100A7000CF93DF93CDB7DEB72E970FB6F894DEBFD6
:100A80000FBECDBF8091A2029091A3022091A4023B
:100A900031E0309365022093870210926602109233
:100AA0008802DC01ED91FC910190F081E02D6BE377
:100AB000099580E00E9445021091A4020E948701DE
:100AC0004B015C0180915F02811166C081E08093DF
:100AD0005F0280935E029FEF90935D0210925C0232
:100AE0009DE090935B0280933A0280913A02110F4D
:100AF000182B10933A0280913902813009F0A9C174
:100B0000109239020E9487014B015C0180913A02E8
:100B10008093BB008091610290916202A091630278
:100B2000B0916402892B8A2B8B2BA1F00E94870144
:100B3000009161021091620220916302309164027F
:100B4000681979098A099B090617170728073907C1
:100B500008F443C08091BC0083FDD8CF85EC80931E
:100B6000BC000E9487014B015C0180915F028130D3
:100B700009F471C180915C028E3008F08EC18091C1
:100B80005C02ABE3B2E0E9E1F2E090E0981751F1EA
:100B90002D9121939F5FFACF809161029091620223
:100BA000A0916302B0916402892B8A2B8B2B09F4EC
:100BB00089CF0E948701409061025090620260904C
:100BC000630270906402681979098A099B094616C4
:100BD00057066806790608F075CF809160020E947A
:100BE000240280E010921802809317028E010F5F9A
:100BF0001F4F6E01BFE0CB0ED11C8091A2029091DD
:100C0000A302DC01ED91FC910284F385E02D0995AE
:100C1000B82E8091A2029091A302DC01ED91FC918B
:100C20000284F385E02D0995E12C8E299B29F8019A
:100C3000819391938F01CE16DF06F9F6C090A90239
:100C4000D090AA02E090AB02F090AC0269817A8168
:100C5000072E000C880B990B0E949F12A70196018A
:100C60000E94D2142091B9023091BA024091BB0285
:100C70005091BC020E94F3136093C9027093CA02A0
:100C80008093CB029093CC026B817C81072E000C69
:100C9000880B990B0E949F12A70196010E94D21403
:100CA0002091BD023091BE024091BF025091C0021E
:100CB0000E94F3136093CD027093CE028093CF0213
:100CC0009093D0028091A10261E06827681B770BA6
:100CD000072E000C880B990B0E949F124B015C01A0
:100CE0006D817E81072E000C880B990B0E949F124C
:100CF0009B01AC01C501B4010E94FE12A70196013F
:100D00000E94D2142091C1023091C2024091C302CC
:100D10005091C4020E94F3136093D1027093D202E7
:100D20008093D3029093D4026F817885072E000CB4
:100D3000880B990B0E949F1220E030EF41E456E4AB
:100D40000E94F41320E030E04AEA53E40E94D214F7
:100D50006093C5027093C6028093C7029093C80245
:100D6000C090A502D090A602E090A702F090A80241
:100D700069857A85072E000C880B990B0E949F12BB
:100D8000A70196010E94D2142091AD023091AE02CB
:100D90004091AF025091B0020E94F3136093D502CC
:100DA0007093D6028093D7029093D8026B857C858E
:100DB000072E000C880B990B0E949F12A701960129
:100DC0000E94D2142091B1023091B2024091B3023C
:100DD0005091B4020E94F3136093D9027093DA0227
:100DE0008093DB029093DC026D857E85072E000CDC
:100DF000880B990B0E949F12A70196010E94D214A2
:100E00002091B5023091B6024091B7025091B802DC
:100E10000E94F3136093DD027093DE028093DF0281
:100E20009093E0022E960FB6F894DEBF0FBECDBFB2
:100E3000DF91CF911F910F91FF90EF90DF90CF90B6
:100E4000BF90AF909F908F907F906F905F904F90EA
:100E5000089585EE84CE8091610290916202A09106
:100E60006302B0916402892B8A2B8B2B09F47DCE0F
:100E70000E94870100916102109162022091630239
:100E800030916402681979098A099B0906171707C6
:100E90002807390708F069CEA0CE8EE072CEE82F81
:100EA000F0E0E352FF4FE491E33031F138F4E13008
:100EB000B9F0E230D9F061E00C94FC00E73041F188
:100EC000E83079F1E430B9F7809180008062809356
:100ED00080008CE890E090938B0080938A000895C6
:100EE00084B5806884BD8CE887BD089584B5806230
:100EF00084BD8CE888BD08958091800080688093CF
:100F000080008CE890E09093890080938800089599
:100F10008091B00080688093B0008CE88093B3002B
:100F200008958091B00080628093B0008CE8809337
:100F3000B40008950F931F93CF938C01C62F0E9486
:100F4000E6036C2F6460C8010E94E6036C2F6B7F80
:100F5000C8010E94E60383EC90E00197F1F7CF917E
:100F60001F910F9108950F931F93CF93DF938C01DF
:100F7000D62FC42F607F642B0E949A0780E1D89FF0
:100F8000B00111246C2BC801DF91CF911F910F91FB
:100F90000C949A0740E061E089E892E00E94B30770
:100FA0008BE39FE10197F1F70895CF93DF93CDB7DE
:100FB000DEB728970FB6F894DEBF0FBECDBF98E01E
:100FC000E9E0F1E0DE01119601900D929A95E1F7CA
:100FD00090919202961708F46FEF262F30E0220FBF
:100FE000331F41E050E04C0F5D1F240F351FF90106
:100FF0006081680F606840E089E892E028960FB64B
:10100000F894DEBF0FBECDBFDF91CF910C94B30734
:1010100041E00E94B30781E090E008954F925F9213
:101020006F927F928F929F92AF92BF92CF92DF92F8
:10103000EF92FF920F931F93CF93DF93CDB7DEB75D
:101040002C970FB6F894DEBF0FBECDBF0E942A05C5
:10105000C090D102D090D202E090D302F090D4029E
:1010600021E030E03A83298320E030E0A901C70184
:10107000B6010E94A11587FF02C01A82198201E001
:1010800010E020E030E0A901C701B6010E949812EB
:1010900087FD02C010E000E069817A81601B710B5E
:1010A000072E000C880B990B0E949F126D837E8384
:1010B0008F839887A7019601C701B6010E94FE128F
:1010C0002B013C01C090C902D090CA02E090CB0233
:1010D000F090CC02A7019601C701B6010E94FE1252
:1010E000A30192010E94F4130E94B4159B01AC016C
:1010F0008090CD029090CE02A090CF02B090D0020E
:101100006D817E818F8198850E94FE129B01AC01CA
:10111000C501B4010E94731421EE3EE245E652E49B
:101120000E94FE126093E1027093E2028093E30258
:101130009093E402A5019401C501B4010E94FE123E
:10114000A30192010E94F4130E94B4159B01AC010B
:10115000C701B6010E947314905821EE3EE245E6A5
:1011600052E40E94FE126093E5027093E6028093BF
:10117000E7029093E8028FB7F894C0901302D090E2
:101180001402E0901502F09016028FBF8091F502D4
:101190009091F602A091F702B091F802A701960192
:1011A000281B390B4A0B5B0BCA01B9010E949D1227
:1011B0002FE632E143E85AE30E94FE124B015C0144
:1011C000C092F502D092F602E092F702F092F80295
:1011D0008091F9029091FA02A091FB02B091FC0279
:1011E00089839A83AB83BC834090E1025090E202F2
:1011F0006090E3027090E4022091D5023091D60213
:101200004091D7025091D802C501B4010E94FE124C
:101210002091E9023091EA024091EB025091EC02F8
:101220000E94F413A30192010E94F3136B017C014D
:1012300020E030E044E353E40E94A11518163CF48A
:1012400020E030E044EB53E4C701B601EDCF20E0ED
:1012500030E044E353ECC701B6010E94981287FFC7
:101260000BC020E030E044EB53E4C701B6010E941C
:10127000F4136B017C01EBCF29813A814B815C81B6
:1012800060E070E080E89FE30E94F31369877A874B
:101290008B879C87A7019601C301B2010E94F413BA
:1012A00029813A814B815C810E94FE126B017C0195
:1012B00029853A854B855C85C301B2010E94FE12E7
:1012C0009B01AC01C701B6010E94F4136B017C01C4
:1012D00020E030E044E353E40E94A11518164CF4DA
:1012E00020E030E044EB53E4C701B6010E94F31361
:1012F000EDCF20E030E044E353ECC701B6010E949B
:10130000981287FF0BC020E030E044EB53E4C701A4
:10131000B6010E94F4136B017C01EBCFC092E9028D
:10132000D092EA02E092EB02F092EC024090E502E9
:101330005090E6026090E7027090E8022091D90296
:101340003091DA024091DB025091DC026D817E81A6
:101350008F8198850E94FE12A50194010E94FE12C1
:101360002091ED023091EE024091EF025091F00297
:101370000E94F413A30192010E94F3136B017C01FC
:1013800020E030E044EB52E40E94A11518163CF432
:1013900020E030E044E353E4C701B601EDCF20E0A4
:1013A00030E044EB52ECC701B6010E94981287FF6F
:1013B0000BC020E030E044E353E4C701B6010E94D3
:1013C000F4136B017C01EBCFA7019601C301B201BD
:1013D0000E94F41329813A814B815C810E94FE12A4
:1013E0006B017C01A301920169857A858B859C85BF
:1013F0000E94FE129B01AC01C701B6010E94F413CA
:101400006B017C0120E030E044EB52E40E94A11526
:1014100018164CF420E030E044E353E4C701B60171
:101420000E94F313EDCF20E030E044EB52ECC70113
:10143000B6010E94981287FF0BC020E030E044E321
:1014400053E4C701B6010E94F4136B017C01EBCF9A
:10145000C092ED02D092EE02E092EF02F092F00222
:101460002091DD023091DE024091DF025091E002D6
:10147000C501B4010E94FE122091F1023091F202E6
:101480004091F3025091F4020E94F4136093F10230
:101490007093F2028093F3029093F4022C960FB6AD
:1014A000F894DEBF0FBECDBFDF91CF911F910F919A
:1014B000FF90EF90DF90CF90BF90AF909F908F9074
:1014C0007F906F905F904F9008950F931F93CF93ED
:1014D000DF93EC0188819981009759F02A813B8143
:1014E0002617370730F081E0DF91CF911F910F91E0
:1014F00008958B016F5F7F4F0E943817009759F056
:10150000998388831B830A832C813D81232B59F780
:10151000FC011082E8CF80E0E7CF85ED8093BC002E
:101520008091610290916202A0916302B091640285
:101530000796A11DB11D23E0B695A79597958795B0
:101540002A95D1F72091BC0024FD03C010925F02C0
:10155000089540916102509162026091630270911E
:101560006402452B462B472B69F30097A105B10573
:1015700041F02AE22A95F1F700C00197A109B109CB
:10158000E1CF809160020C9424024F925F926F929F
:101590007F92AF92BF92CF92DF92EF92FF920F9322
:1015A0001F93CF93DF9300D000D000D0CDB7DEB72C
:1015B0008C0160E1A62EB12C80911202882309F4DF
:1015C000B2C080910101909102010817190709F436
:1015D0008AC010930201009301010E94CA0760E0D3
:1015E00084E00E94D50780E591E00E941D051A82E3
:1015F00019821C821B821E821D8265E070E0CE0172
:1016000001960E94650A29813A818111A1C02115A4
:10161000310519F0C9010E94AF161A8219821E8283
:101620001D821C821B8238E4C32E31E0D32E0115AB
:101630001105C9F02FE3C22E21E0D22E0130110591
:1016400091F09AE3C92E91E0D92E0730110559F097
:1016500055E3C52E51E0D52E0430110521F08FE25F
:10166000C82E81E0D82EF60101900020E9F73197CD
:10167000EC19FD09B1F0ED80FE80EE0EFF1EB70102
:10168000CE0101960E94650A882359F029813A818A
:101690008D819E81B601820F931F0E94FE17FE82EC
:1016A000ED828D819E819501281B390BC90196958C
:1016B000879561E00430110521F00230110509F031
:1016C00051C081500E94D5076EE70430110509F022
:1016D0006FE789E892E00E94080889819A81009763
:1016E00011F00E94AF16780131E0E322FF24B80127
:1016F000609570956B0181E0C822DD2402301105F0
:10170000E4F5162F1170612F82E00E94FC006E2D0F
:1017100083E00E94FC00612F86E00E94FC006E2D99
:1017200087E00E94FC0026960FB6F894DEBF0FBE3D
:10173000CDBFDF91CF911F910F91FF90EF90DF9080
:10174000CF90BF90AF907F906F905F904F90089533
:1017500085E090E09E838D8369E571E0C9010E9478
:10176000FE1761CF0E94D5074D815E8169817A8124
:1017700089E892E00E94A600B0CF07301105B9F4C5
:1017800060E082E00E94FC0060E083E00E94FC00D8
:1017900060E086E00E94FC0060E087E00E94FC00C0
:1017A00064E670E080E090E00E94AC01BCCF87E08E
:1017B00090E00E94C50A0E940E086C2D02FF4DC0E9
:1017C00086E00E94FC006C2D83E00E94FC006E2DE0
:1017D00087E00E94FC006E2D82E00E94FC00C09019
:1017E000F102D090F202E090F302F090F40220E0D7
:1017F00030E0A901C701B6010E94A1151816DCF559
:1018000020E030E04EEA52E4C701B6010E94F41332
:101810002B013C0107E010E0C090F102D090F202F1
:10182000E090F302F090F40220E030E0A901C7015B
:10183000B6010E94A115181624F0F7FAF094F7F8F3
:10184000F094A7019601C301B2010E94A1151816D8
:101850000CF0B2CE0E940E08DFCF82E00E94FC00A6
:101860006C2D87E00E94FC006E2D83E00E94FC003E
:101870006E2D86E0B2CFA701960160E070E08EEA9F
:1018800092E40E94F313C4CFCF92DF92EF92FF92C3
:101890000F931F93CF93DF93EC0163E270E080E03E
:1018A00090E00E94AC011EE005E0209739F004E0D2
:1018B00010E1C430D10511F01FE008E060E0802F96
:1018C0000E94FC008BE090E00197F1F761E0802F2F
:1018D0000E94FC0083E290E00197F1F760E0802F26
:1018E0000E94FC00812F90E0FC01E753FF4F6491C0
:1018F000FC01EB54FF4FE491F0E0EE0FFF1FE555C4
:10190000FF4F8591949100E412E42FE030E0462FE0
:101910000E94B00E611571058105910529F06F5F78
:101920007F4F8F4F9F4F9F700E949F1226E933E495
:101930004BE05DE30E94FE1220E030E040E05FE318
:101940000E94FE126B017C0120E030E0A9010E94A0
:101950009812181614F187E090E00E94C50A1092C0
:1019600012020E94CA0760E082E00E94D507209719
:1019700011F58FE591E00E941D0581E090E00E9445
:10198000FD0380E791E00E941D0561E082E00E9476
:10199000D50788E791E00E941D05C701B6010E94A6
:1019A0004415CB01DF91CF911F910F91FF90EF90E4
:1019B000DF90CF900895249739F485E691E00E9456
:1019C0001D0582E090E0DBCF8AE691E00E941D05D4
:1019D00083E090E0D4CF1F920F920FB60F921124A4
:1019E0002F933F934F935F936F937F938F939F9327
:1019F000AF93BF93EF93FF9380910A0290910B02F4
:101A0000A0910C02B0910D02892B8A2B8B2BD1F166
:101A100090910902E0910702F091080280818927E4
:101A2000808380910A0290910B02A0910C02B091E8
:101A30000D02181619061A061B069CF480910A025C
:101A400090910B02A0910C02B0910D020197A10997
:101A5000B10980930A0290930B02A0930C02B093F9
:101A60000D02FF91EF91BF91AF919F918F917F9167
:101A70006F915F914F913F912F910F900FBE0F90FB
:101A80001F901895809100010E942A01EACF1F92B1
:101A90000F920FB60F9211242F933F938F939F9322
:101AA000AF93BF938091130290911402A0911502FD
:101AB000B09116023091020223E0230F2D3758F522
:101AC0000196A11DB11D20930202809313029093F1
:101AD0001402A0931502B093160280910302909114
:101AE0000402A0910502B09106020196A11DB11D4C
:101AF0008093030290930402A0930502B093060220
:101B0000BF91AF919F918F913F912F910F900FBEF9
:101B10000F901F90189526E8230F0296A11DB11D66
:101B2000D2CF1F920F920FB60F9211242F933F9393
:101B30004F935F936F937F938F939F93AF93BF93D5
:101B4000EF93FF938091B900887F803609F44AC0F3
:101B5000F0F5883209F4A7C018F5803109F49BC06C
:101B6000B8F4882309F4F9C0883009F494C0FF91CF
:101B7000EF91BF91AF919F918F917F916F915F9105
:101B80004F913F912F910F900FBE0F901F9018957E
:101B9000883109F488C0803251F780935D0214C007
:101BA000803409F49DC040F48033B9F38833F9F6EA
:101BB00080935D0285ECB0C0803509F485C088351E
:101BC00009F496C0883499F60E948D0AD0CF8839DE
:101BD00009F48CC038F5883729F050F4883611F0B4
:101BE000803729F683E080935F021092010257C08C
:101BF000883809F47BC0803919F0803809F0B7CFF4
:101C000080910102803208F071C0E091010281E010
:101C10008E0F809301028091BB00F0E0EF51FE4FE8
:101C200080833DC0803B39F0E0F4803A09F479C00C
:101C3000883A09F09CCF84E080935F021092E00123
:101C40001092DF01E0910E02F0910F020995809150
:101C5000DF0181110FC081E08093DF011092BF018D
:101C600009C0803C09F4A6CF883C09F4A3CF883B87
:101C700009F07DCFE091E00181E08E0F8093E001DB
:101C8000F0E0E154FE4F80818093BB009091E00131
:101C90008091DF0129C080913A028093BB0085ECDE
:101CA0008093BC0064CF90915C0280915B02981796
:101CB00058F5E0915C0281E08E0F80935C02F0E0C9
:101CC000E55CFD4F8081E9CFE0915C0281E08E0F01
:101CD00080935C028091BB00F0E0E55CFD4F808367
:101CE00090915C0280915B029817C8F285E8D8CF8A
:101CF000E0915C0281E08E0F80935C028091BB00DA
:101D0000F0E0E55CFD4F808380915E0281115CCF45
:101D100081E08093390284EA8093BC0010925F02D4
:101D200026CF85EC8093BC0010925F028091010267
:101D3000803230F4E0910102F0E0EF51FE4F10826A
:101D40006091010270E0E0911002F091110281EEC9
:101D500091E00995109201020ACF10925D0234CFF2
:101D6000CF92DF92EF92FF920F931F93E82FF92FFC
:101D700005C0015011092109310961F190819623B3
:101D80009417B9F305C0015011092109310911F166
:101D9000908196239413F7CFC12CD12CE12CF12CF8
:101DA0000AC08FEFC81AD80AE80AF80A0C151D05F0
:101DB0002E053F0579F080818623841791F36C2DE1
:101DC0007D2D8E2D9F2D1F910F91FF90EF90DF9015
:101DD000CF90089560E070E080E090E01F910F9157
:101DE000FF90EF90DF90CF900895A5E9B2E01396B1
:101DF0001C921E92129748EE53E060E070E0149639
:101E00004D935D936D937C93179785E191E01196C7
:101E10009C938E93E1EAF2E0108288E68383B2839A
:101E2000A18388E491EEAAE7BFE38093F90290933F
:101E3000FA02A093FB02B093FC0214861586168664
:101E40001786108A118A128A138A148A158A168AAA
:101E5000178A108E118E128E138E148E158E168E7A
:101E6000178E10A211A212A213A2E9E8F2E01382C7
:101E7000128287E291E0918380838FE3848380E103
:101E8000808782E08187128688E083870895CF93D8
:101E9000DF93CDB7DEB72E970FB6F894DEBF0FBE37
:101EA000CDBF789484B5826084BD84B5816084BDE3
:101EB00085B5826085BD85B5816085BD80916E00E8
:101EC000816080936E001092810080918100826019
:101ED0008093810080918100816080938100809156
:101EE00080008160809380008091B1008460809345
:101EF000B1008091B00081608093B00080917A0041
:101F0000846080937A0080917A00826080937A0066
:101F100080917A00816080937A0080917A00806855
:101F200080937A001092C10010921802109217024A
:101F300010926602109288020E94060284EA90E0E3
:101F400090930F0280930E0285EA90E09093110225
:101F50008093100260E08BE00E94560161E08CE00B
:101F60000E94560160E08EE00E94560161E085E02B
:101F70000E94560160E080E10E94560161E084E029
:101F80000E94560160E08FE00E94560161E088E007
:101F90000E94560161E08AE00E94560161E082E001
:101FA0000E94560161E083E00E94560161E089E0F1
:101FB0000E94560161E086E00E94560161E087E0E0
:101FC0000E9456010E94060210928E028091920297
:101FD000823018F098E090938E02909193029923AA
:101FE00039F0813029F480918E02846080938E02D2
:101FF00062E370E080E090E00E94AC0160919402A6
:1020000089E892E00E94E60368EE73E080E090E0E9
:102010000E94AC0160E389E892E00E949A078BE499
:1020200096E40197F1F760E389E892E00E949A074D
:102030002BE436E4C9010197F1F760E389E892E007
:102040000E949A0783E592E00197F1F760E289E840
:1020500092E00E949A0760918E02606240E089E8F7
:1020600092E00E94B30784E080938F0240E06CE02E
:1020700089E892E00E94B3070E94CA0782E0809339
:10208000900240E066E089E892E00E94B30740E0F9
:1020900062E089E892E00E94B3078BE39FE1019739
:1020A000F1F70E94CA0760E084E00E94D50780E54E
:1020B00091E00E941D0561E080E00E94D50784E860
:1020C00091E00E941D0561E08AE00E9456018AE0CD
:1020D0000E944F0761E089E00E94560189E00E945A
:1020E0004F0787E090E00E94C50A08EE10E090E0FC
:1020F000292E90E0392E809112028111CEC1F80173
:102100008491E4EDF0E0F491F983E0ECF0E0F491F7
:10211000FD83F1119FC121E0209312020E94CA07A2
:1021200060E080E00E94D50761E08BE60E94350305
:10213000898360E089E10E94350360E08AE10E94C2
:10214000350380E090E0A3E8B2E48093A502909389
:10215000A602A093A702B093A80268E08BE10E94B8
:10216000350380E090E0A0E8B6E48093A902909364
:10217000AA02A093AB02B093AC0260E08CE10E9493
:1021800035030E940E088091E1029091E202A09135
:10219000E302B091E4028093E9029093EA02A093F3
:1021A000EB02B093EC028091E5029091E602A091DF
:1021B000E702B091E8028093ED029093EE02A093C3
:1021C000EF02B093F0022FB7F89480911302909130
:1021D0001402A0911502B09116022FBF8093F50250
:1021E0009093F602A093F702B093F80299819111AF
:1021F00049C183EA91E00E941D0568EE73E080E02A
:1022000090E00E94AC011092AD021092AE021092CA
:10221000AF021092B0021092B1021092B20210926C
:10222000B3021092B4021092B5021092B60210924C
:10223000B7021092B8021092B9021092BA0210922C
:10224000BB021092BC021092BD021092BE0210920C
:10225000BF021092C0021092C1021092C2021092EC
:10226000C3021092C402E4EFF1E0FE87ED87198209
:102270001A821B821C821D821E821F82188619866A
:102280001A861B861C86C12CD12C7601460157016B
:10229000260137010E942A052091C9023091CA0205
:1022A0004091CB025091CC02C301B2010E94F413C1
:1022B0002B013C012091CD023091CE024091CF0202
:1022C0005091D002C501B4010E94F4134B015C018E
:1022D00020E030E040E85FE36091D1027091D202EB
:1022E0008091D3029091D4020E94F3139B01AC0120
:1022F000C701B6010E94F4136B017C012091D50245
:102300003091D6024091D7025091D80269857A85E2
:102310008B859C850E94F41369877A878B879C87BD
:102320002091D9023091DA024091DB025091DC0217
:102330006D817E818F8198850E94F4136D837E83E9
:102340008F8398872091DD023091DE024091DF0279
:102350005091E00269817A818B819C810E94F41303
:1023600069837A838B839C8361E070E080E090E0F6
:102370000E94AC012D853E85215031093E872D8775
:10238000232B09F087CF20E030E04AEF53E4C3016C
:10239000B2010E94D2146093B9027093BA02809382
:1023A000BB029093BC0220E030E04AEF53E4C50149
:1023B000B4010E94D2146093BD027093BE02809358
:1023C000BF029093C00220E030E04AEF53E4C7011F
:1023D000B6010E94D2146093C1027093C20280932E
:1023E000C3029093C40220E030E04AEF53E46985D1
:1023F0007A858B859C850E94D2146093AD02709380
:10240000AE028093AF029093B00220E030E04AEF3A
:1024100053E46D817E818F8198850E94D2146093F0
:10242000B1027093B2028093B3029093B40220E0A1
:1024300030E04AEF53E469817A818B819C810E946C
:10244000D2146093B5027093B6028093B702909352
:10245000B80211C081110E94D300AD81EA2FF0E0D3
:10246000EE0FFF1FE555FF4FA591B4918C91B981F7
:10247000B82309F450CE2114310409F43CCE0E9453
:10248000000039CE85E991E00E941D0584E090E0CE
:102490000E94FD0310921202EECF0E940E0890E0FF
:1024A00080E00E94440C7C0184E090E00E94440C97
:1024B0009A83898382E090E00E94440CA981BA81CA
:1024C000EA16FB06D4F47D01E4E0F0E0FA83E98348
:1024D000E816F9062CF47C0122E030E03A832983E7
:1024E00039E1E316F10464F487E090E00E94C50A44
:1024F00081E090E00E94C50AD2CF1A821982E8CF0B
:1025000066E970E080E090E00E94AC0180910101FA
:1025100090910201A981BA818A179B0721F087E077
:1025200090E00E94C50A89819A810E94C50AA3CFC2
:102530000E94DA1208F481E00895E89409C097FB3C
:102540003EF490958095709561957F4F8F4F9F4F8A
:102550009923A9F0F92F96E9BB279395F6958795CE
:1025600077956795B795F111F8CFFAF4BB0F11F491
:1025700060FF1BC06F5F7F4F8F4F9F4F16C0882338
:1025800011F096E911C0772321F09EE8872F762F6E
:1025900005C0662371F096E8862F70E060E02AF0AF
:1025A0009A95660F771F881FDAF7880F969587959B
:1025B00097F90895990F0008550FAA0BE0E8FEEF70
:1025C00016161706E807F907C0F012161306E407F7
:1025D000F50798F0621B730B840B950B39F40A26F0
:1025E00061F0232B242B252B21F408950A2609F4CE
:1025F000A140A6958FEF811D811D08950E941113A2
:102600000C9482130E94741338F00E947B1320F004
:10261000952311F00C946B130C94711311240C94EA
:10262000B6130E94931370F3959FC1F3950F50E07A
:10263000551F629FF001729FBB27F00DB11D639F74
:10264000AA27F00DB11DAA1F649F6627B00DA11D1A
:10265000661F829F2227B00DA11D621F739FB00DC0
:10266000A11D621F839FA00D611D221F749F332730
:10267000A00D611D231F849F600D211D822F762FC9
:102680006A2F11249F5750409AF0F1F088234AF0A6
:10269000EE0FFF1FBB1F661F771F881F9150504012
:1026A000A9F79E3F510580F00C946B130C94B61360
:1026B0005F3FE4F3983ED4F3869577956795B79599
:1026C000F795E7959F5FC1F7FE2B880F911D9695B3
:1026D000879597F9089597F99F6780E870E060E023
:1026E00008959FEF80EC089500240A9416161706AB
:1026F00018060906089500240A94121613061406F3
:1027000005060895092E0394000C11F4882352F055
:10271000BB0F40F4BF2B11F460FF04C06F5F7F4F0D
:102720008F4F9F4F089557FD9058440F551F59F0F4
:102730005F3F71F04795880F97FB991F61F09F3FAE
:1027400079F087950895121613061406551FF2CFD7
:102750004695F1DF08C0161617061806991FF1CF27
:1027600086957105610508940895E894BB2766274E
:102770007727CB0197F908952F923F924F925F925E
:102780006F927F928F929F92AF92BF92CF92DF9281
:10279000EF92FF920F931F93CF93DF93CDB7DEB7E6
:1027A000CA1BDB0B0FB6F894DEBF0FBECDBF09947A
:1027B0002A88398848885F846E847D848C849B84D1
:1027C000AA84B984C884DF80EE80FD800C811B81DF
:1027D000AA81B981CE0FD11D0FB6F894DEBF0FBE0E
:1027E000CDBFED0108955058BB27AA270E940B14B6
:1027F0000C9482130E94741338F00E947B1320F013
:1028000039F49F3F19F426F40C9471130EF4E095FB
:10281000E7FB0C946B13E92F0E94931358F3BA173C
:10282000620773078407950720F079F4A6F50C94E6
:10283000B5130EF4E0950B2EBA2FA02D0B01B901A4
:1028400090010C01CA01A0011124FF27591B99F026
:10285000593F50F4503E68F11A16F040A22F232F32
:10286000342F4427585FF3CF469537952795A79582
:10287000F0405395C9F77EF41F16BA0B620B730B29
:10288000840BBAF09150A1F0FF0FBB1F661F771F9A
:10289000881FC2F70EC0BA0F621F731F841F48F44F
:1028A000879577956795B795F7959E3F08F0B0CFD8
:1028B0009395880F08F09927EE0F979587950895BF
:1028C0000E94741360F080E891E009F49EEF0E948A
:1028D0007B1328F040E851E071F45EEF0CC00C94DB
:1028E00071130C94B513E92FE0780E94931340F311
:1028F000092E052AB1F3261737074807590738F07C
:102900000E2E07F8E02569F0E025E0640AC0EF63C9
:1029100007F8009407FADB01B9019D01DC01CA0147
:10292000AD01EF930E94E9140E9482130E94A31448
:102930005F91552339F02BED3FE049E450FD49EC20
:102940000C94F4130895DF93DD27B92FBF7740E887
:102950005FE31616170648075B0718F4D92F0E9485
:10296000A6159F938F937F936F930E94F415E8E6CB
:10297000F0E00E947A150E9482132F913F914F91AF
:102980005F910E941113DD2351F09058A2EA2AEDC5
:102990003FE049EC5FE3D0785D270E940B14DF91A4
:1029A0000C9482130E94E6140C9482130E947B13F1
:1029B00058F00E94741340F029F45F3F29F00C9402
:1029C0006B1351110C94B6130C9471130E94931352
:1029D00068F39923B1F3552391F3951B550BBB274E
:1029E000AA2762177307840738F09F5F5F4F220F93
:1029F000331F441FAA1FA9F335D00E2E3AF0E0E88A
:102A000032D091505040E695001CCAF72BD0FE2FD3
:102A100029D0660F771F881FBB1F26173707480767
:102A2000AB07B0E809F0BB0B802DBF01FF2793581F
:102A30005F4F3AF09E3F510578F00C946B130C9465
:102A4000B6135F3FE4F3983ED4F386957795679588
:102A5000B795F7959F5FC9F7880F911D9695879554
:102A600097F90895E1E0660F771F881FBB1F621773
:102A700073078407BA0720F0621B730B840BBA0B31
:102A8000EE1F88F7E09508950E944B156894B111E8
:102A90000C94B61308950E949B1388F09F5798F0EA
:102AA000B92F9927B751B0F0E1F0660F771F881F53
:102AB000991F1AF0BA95C9F714C0B13091F00E946D
:102AC000B513B1E008950C94B513672F782F8827BC
:102AD000B85F39F0B93FCCF3869577956795B39594
:102AE000D9F73EF490958095709561957F4F8F4F03
:102AF0009F4F0895DF93CF931F930F93FF92EF9211
:102B0000DF927B018C01689406C0DA2EEF010E94EF
:102B10001113FE01E894A5912591359145915591A8
:102B2000A6F3EF010E940B14FE019701A801DA94AD
:102B300069F7DF90EF90FF900F911F91CF91DF9198
:102B400008950E94DA1208F48FEF08959B01AC01FA
:102B500060E070E080E89FE30C94D21419F416F45E
:102B60000C9471130C94F8150E949B13B8F39923DD
:102B7000C9F3B6F39F57550B87FF0E940616002432
:102B8000A0E640EA900180585695979528F4805C1D
:102B9000660F771F881F20F026173707480730F485
:102BA000621B730B840B202931294A2BA69517949D
:102BB0000794202531254A2758F7660F771F881F6D
:102BC00020F026173707480730F4620B730B840B8D
:102BD000200D311D411DA09581F7B901842F915819
:102BE000880F9695879508959B01AC010C94FE1271
:102BF0009F3F31F0915020F4879577956795B79571
:102C0000880F911D9695879597F90895915050409A
:102C1000660F771F881FD2F70895EE0FFF1F0590EC
:102C2000F491E02D09940F931F93CF93DF9382309B
:102C3000910510F482E090E0E091FF02F091000332
:102C400030E020E0B0E0A0E0309799F421153105A4
:102C500009F44AC0281B390B24303105D8F58A8184
:102C60009B816115710589F1FB0193838283FE01CC
:102C700011C0408151810281138148175907E0F04A
:102C80004817590799F4109761F012960C93129710
:102C900013961C933296CF01DF91CF911F910F9124
:102CA00008950093FF0210930003F4CF211531051E
:102CB00051F04217530738F0A901DB019A01BD0119
:102CC000DF01F801C1CFEF01F9CF909300038093AA
:102CD000FF02CDCFFE01E20FF31F819391932250AB
:102CE000310939832883D7CF2091FD023091FE022C
:102CF000232B41F420910501309106013093FE020F
:102D00002093FD022091030130910401211531052A
:102D100041F42DB73EB74091070150910801241BA3
:102D2000350BE091FD02F091FE02E217F307A0F4EB
:102D30002E1B3F0B2817390778F0AC014E5F5F4F11
:102D40002417350748F04E0F5F1F5093FE02409343
:102D5000FD02819391939FCFF0E0E0E09CCFCF9371
:102D6000DF930097E9F0FC01329713821282A09161
:102D7000FF02B0910003ED0130E020E01097A1F4D4
:102D800020813181820F931F2091FD023091FE023C
:102D90002817390709F061C0F093FE02E093FD02A5
:102DA000DF91CF910895EA01CE17DF07E8F54A8158
:102DB0005B819E0141155105B1F7E901FB83EA836F
:102DC00049915991C40FD51FEC17FD0761F480811B
:102DD00091810296840F951FE901998388838281EE
:102DE00093819B838A83F0E0E0E012968D919C9121
:102DF00013970097B9F52D913C911197CD0102964B
:102E0000820F931F2091FD023091FE02281739078F
:102E100039F6309751F5109200031092FF02B093EB
:102E2000FE02A093FD02BCCFD383C28340815181B7
:102E3000840F951FC817D90761F44E5F5F4F8881D3
:102E40009981480F591F518340838A819B819383C5
:102E500082832115310509F0B0CFF0930003E09390
:102E6000FF029ECFFD01DC01C0CF13821282D7CFBB
:102E7000B0E0A0E0EEE3F7E10C94BE138C01009704
:102E800051F4CB010E9413168C01C801CDB7DEB7F7
:102E9000E0E10C94DA13FC01E60FF71F9C012250CD
:102EA0003109E217F30708F49DC0D901CD91DC91F7
:102EB0001197C617D70798F0C530D10530F3CE016A
:102EC00004978617970708F3C61BD70B2297C19361
:102ED000D1936D937C93CF010E94AF16D6CF5B0147
:102EE000AC1ABD0A4C018C0E9D1EA091FF02B09140
:102EF0000003512C412CF12CE12C109731F58091DD
:102F0000FD029091FE028815990509F05CC04616F5
:102F1000570608F058C08091030190910401009772
:102F200041F48DB79EB74091070150910801841B71
:102F3000950BE817F90708F055C0F093FE02E093EF
:102F4000FD02F90171836083A0CF8D919C9111974F
:102F500012966C90129713967C901397A815B9054A
:102F600059F56C0142E0C40ED11CCA14DB0420F1F7
:102F7000AC014A195B09DA011296159780F062825A
:102F8000738251834083D9016D937C93E114F104E2
:102F900071F0D7011396FC93EE93129776CF229699
:102FA0008C0F9D1FF90191838083F301EFCFF09384
:102FB0000003E093FF0269CF4816590608F42C017C
:102FC0007D01D3019ACFCB010E9413167C0100979B
:102FD00049F0AE01B8010E94F517C8010E94AF1672
:102FE000870153CF10E000E050CFFB01DC0102C0AD
:102FF00001900D9241505040D8F70895FB01DC013B
:0E30000001900D920020E1F70895F894FFCFA3
:10300E00FFFFFF0000010380000000400014005489
:10301E000000000000B7038A03FA03600383037005
:10302E00036103000000000808A600FA03DE017227
:10303E0069676874006C6566740073746F70006203
:10304E0061636B7761726400666F727761726400A0
:10305E004B554B5520424F54004D6F766520004620
:10306E00726F6E74004C6566740052696768740006
:10307E002073656E736F72006E6F7420776F726B54
:10308E00696E670043687269736C616E6420536386
:10309E00686F6F6C004D505536303530206572724A
:1030AE006F720043616C6962726174696E6720674A
:0430BE0079726F00B4
:00000001FF
